{
  "_format": "hh-sol-artifact-1",
  "contractName": "Vesting",
  "sourceName": "contracts/Vesting.sol",
  "abi": [
    {
      "inputs": [
        {
          "internalType": "string",
          "name": "name",
          "type": "string"
        },
        {
          "internalType": "string",
          "name": "symbol",
          "type": "string"
        }
      ],
      "stateMutability": "nonpayable",
      "type": "constructor"
    },
    {
      "anonymous": false,
      "inputs": [
        {
          "indexed": true,
          "internalType": "address",
          "name": "owner",
          "type": "address"
        },
        {
          "indexed": true,
          "internalType": "address",
          "name": "spender",
          "type": "address"
        },
        {
          "indexed": false,
          "internalType": "uint256",
          "name": "value",
          "type": "uint256"
        }
      ],
      "name": "Approval",
      "type": "event"
    },
    {
      "anonymous": false,
      "inputs": [
        {
          "indexed": false,
          "internalType": "uint256",
          "name": "startTime",
          "type": "uint256"
        },
        {
          "indexed": false,
          "internalType": "uint256",
          "name": "vestingPeriod",
          "type": "uint256"
        }
      ],
      "name": "CreatedStakeholder",
      "type": "event"
    },
    {
      "anonymous": false,
      "inputs": [
        {
          "indexed": true,
          "internalType": "address",
          "name": "from",
          "type": "address"
        },
        {
          "indexed": true,
          "internalType": "address",
          "name": "to",
          "type": "address"
        },
        {
          "indexed": false,
          "internalType": "uint256",
          "name": "value",
          "type": "uint256"
        }
      ],
      "name": "Transfer",
      "type": "event"
    },
    {
      "inputs": [
        {
          "internalType": "address",
          "name": "_stakeholderAddress",
          "type": "address"
        },
        {
          "internalType": "string",
          "name": "_role",
          "type": "string"
        },
        {
          "internalType": "uint256",
          "name": "_endTime",
          "type": "uint256"
        },
        {
          "internalType": "uint256",
          "name": "_tokenAmount",
          "type": "uint256"
        },
        {
          "internalType": "string",
          "name": "email",
          "type": "string"
        },
        {
          "internalType": "uint256",
          "name": "_orgId",
          "type": "uint256"
        }
      ],
      "name": "addStakeholder",
      "outputs": [],
      "stateMutability": "payable",
      "type": "function"
    },
    {
      "inputs": [
        {
          "internalType": "address",
          "name": "",
          "type": "address"
        }
      ],
      "name": "address_to_id",
      "outputs": [
        {
          "internalType": "uint256",
          "name": "",
          "type": "uint256"
        }
      ],
      "stateMutability": "view",
      "type": "function"
    },
    {
      "inputs": [
        {
          "internalType": "address",
          "name": "owner",
          "type": "address"
        },
        {
          "internalType": "address",
          "name": "spender",
          "type": "address"
        }
      ],
      "name": "allowance",
      "outputs": [
        {
          "internalType": "uint256",
          "name": "",
          "type": "uint256"
        }
      ],
      "stateMutability": "view",
      "type": "function"
    },
    {
      "inputs": [
        {
          "internalType": "address",
          "name": "spender",
          "type": "address"
        },
        {
          "internalType": "uint256",
          "name": "amount",
          "type": "uint256"
        }
      ],
      "name": "approve",
      "outputs": [
        {
          "internalType": "bool",
          "name": "",
          "type": "bool"
        }
      ],
      "stateMutability": "nonpayable",
      "type": "function"
    },
    {
      "inputs": [
        {
          "internalType": "address",
          "name": "account",
          "type": "address"
        }
      ],
      "name": "balanceOf",
      "outputs": [
        {
          "internalType": "uint256",
          "name": "",
          "type": "uint256"
        }
      ],
      "stateMutability": "view",
      "type": "function"
    },
    {
      "inputs": [
        {
          "internalType": "uint256",
          "name": "amount",
          "type": "uint256"
        },
        {
          "internalType": "uint256",
          "name": "userId",
          "type": "uint256"
        }
      ],
      "name": "claimTokens",
      "outputs": [],
      "stateMutability": "payable",
      "type": "function"
    },
    {
      "inputs": [],
      "name": "decimals",
      "outputs": [
        {
          "internalType": "uint8",
          "name": "",
          "type": "uint8"
        }
      ],
      "stateMutability": "view",
      "type": "function"
    },
    {
      "inputs": [
        {
          "internalType": "address",
          "name": "spender",
          "type": "address"
        },
        {
          "internalType": "uint256",
          "name": "subtractedValue",
          "type": "uint256"
        }
      ],
      "name": "decreaseAllowance",
      "outputs": [
        {
          "internalType": "bool",
          "name": "",
          "type": "bool"
        }
      ],
      "stateMutability": "nonpayable",
      "type": "function"
    },
    {
      "inputs": [
        {
          "internalType": "string",
          "name": "",
          "type": "string"
        }
      ],
      "name": "email_to_address",
      "outputs": [
        {
          "internalType": "address",
          "name": "",
          "type": "address"
        }
      ],
      "stateMutability": "view",
      "type": "function"
    },
    {
      "inputs": [],
      "name": "getTransactPrice",
      "outputs": [
        {
          "internalType": "uint256",
          "name": "",
          "type": "uint256"
        }
      ],
      "stateMutability": "view",
      "type": "function"
    },
    {
      "inputs": [
        {
          "internalType": "address",
          "name": "spender",
          "type": "address"
        },
        {
          "internalType": "uint256",
          "name": "addedValue",
          "type": "uint256"
        }
      ],
      "name": "increaseAllowance",
      "outputs": [
        {
          "internalType": "bool",
          "name": "",
          "type": "bool"
        }
      ],
      "stateMutability": "nonpayable",
      "type": "function"
    },
    {
      "inputs": [
        {
          "internalType": "address",
          "name": "",
          "type": "address"
        }
      ],
      "name": "is_organization",
      "outputs": [
        {
          "internalType": "bool",
          "name": "",
          "type": "bool"
        }
      ],
      "stateMutability": "view",
      "type": "function"
    },
    {
      "inputs": [],
      "name": "name",
      "outputs": [
        {
          "internalType": "string",
          "name": "",
          "type": "string"
        }
      ],
      "stateMutability": "view",
      "type": "function"
    },
    {
      "inputs": [
        {
          "internalType": "uint256",
          "name": "id",
          "type": "uint256"
        }
      ],
      "name": "orgStakeholders",
      "outputs": [
        {
          "internalType": "uint256[]",
          "name": "",
          "type": "uint256[]"
        }
      ],
      "stateMutability": "view",
      "type": "function"
    },
    {
      "inputs": [
        {
          "internalType": "uint256",
          "name": "",
          "type": "uint256"
        }
      ],
      "name": "organizations",
      "outputs": [
        {
          "internalType": "address",
          "name": "orgAddress",
          "type": "address"
        },
        {
          "internalType": "uint256",
          "name": "id",
          "type": "uint256"
        },
        {
          "internalType": "string",
          "name": "name",
          "type": "string"
        },
        {
          "internalType": "string",
          "name": "symbol",
          "type": "string"
        }
      ],
      "stateMutability": "view",
      "type": "function"
    },
    {
      "inputs": [
        {
          "internalType": "string",
          "name": "name",
          "type": "string"
        },
        {
          "internalType": "string",
          "name": "symbol",
          "type": "string"
        },
        {
          "internalType": "string",
          "name": "email",
          "type": "string"
        },
        {
          "internalType": "address",
          "name": "orgAddress",
          "type": "address"
        }
      ],
      "name": "registerOrganization",
      "outputs": [],
      "stateMutability": "payable",
      "type": "function"
    },
    {
      "inputs": [
        {
          "internalType": "string",
          "name": "email",
          "type": "string"
        }
      ],
      "name": "signin",
      "outputs": [
        {
          "internalType": "string",
          "name": "accountType",
          "type": "string"
        }
      ],
      "stateMutability": "view",
      "type": "function"
    },
    {
      "inputs": [
        {
          "internalType": "uint256",
          "name": "",
          "type": "uint256"
        }
      ],
      "name": "stakeholders",
      "outputs": [
        {
          "internalType": "uint256",
          "name": "id",
          "type": "uint256"
        },
        {
          "internalType": "uint256",
          "name": "orgId",
          "type": "uint256"
        },
        {
          "internalType": "address",
          "name": "userAddress",
          "type": "address"
        },
        {
          "internalType": "string",
          "name": "role",
          "type": "string"
        },
        {
          "internalType": "uint256",
          "name": "endTime",
          "type": "uint256"
        },
        {
          "internalType": "uint256",
          "name": "startTime",
          "type": "uint256"
        },
        {
          "internalType": "uint256",
          "name": "tokenAmount",
          "type": "uint256"
        },
        {
          "internalType": "uint256",
          "name": "claimedToken",
          "type": "uint256"
        },
        {
          "internalType": "bool",
          "name": "whitelisted",
          "type": "bool"
        }
      ],
      "stateMutability": "view",
      "type": "function"
    },
    {
      "inputs": [],
      "name": "symbol",
      "outputs": [
        {
          "internalType": "string",
          "name": "",
          "type": "string"
        }
      ],
      "stateMutability": "view",
      "type": "function"
    },
    {
      "inputs": [],
      "name": "totalSupply",
      "outputs": [
        {
          "internalType": "uint256",
          "name": "",
          "type": "uint256"
        }
      ],
      "stateMutability": "view",
      "type": "function"
    },
    {
      "inputs": [
        {
          "internalType": "address",
          "name": "to",
          "type": "address"
        },
        {
          "internalType": "uint256",
          "name": "amount",
          "type": "uint256"
        }
      ],
      "name": "transfer",
      "outputs": [
        {
          "internalType": "bool",
          "name": "",
          "type": "bool"
        }
      ],
      "stateMutability": "nonpayable",
      "type": "function"
    },
    {
      "inputs": [
        {
          "internalType": "address",
          "name": "from",
          "type": "address"
        },
        {
          "internalType": "address",
          "name": "to",
          "type": "address"
        },
        {
          "internalType": "uint256",
          "name": "amount",
          "type": "uint256"
        }
      ],
      "name": "transferFrom",
      "outputs": [
        {
          "internalType": "bool",
          "name": "",
          "type": "bool"
        }
      ],
      "stateMutability": "nonpayable",
      "type": "function"
    },
    {
      "inputs": [
        {
          "internalType": "uint256",
          "name": "stakeholderId",
          "type": "uint256"
        }
      ],
      "name": "whitelistStakeholder",
      "outputs": [],
      "stateMutability": "payable",
      "type": "function"
    }
  ],
  "bytecode": "0x6080604052655af3107a4000600a553480156200001b57600080fd5b50604051620022da380380620022da8339810160408190526200003e9162000202565b815182908290620000579060039060208501906200008f565b5080516200006d9060049060208401906200008f565b505060016005555050600980546001600160a01b0319163317905550620002a9565b8280546200009d906200026c565b90600052602060002090601f016020900481019282620000c157600085556200010c565b82601f10620000dc57805160ff19168380011785556200010c565b828001600101855582156200010c579182015b828111156200010c578251825591602001919060010190620000ef565b506200011a9291506200011e565b5090565b5b808211156200011a57600081556001016200011f565b634e487b7160e01b600052604160045260246000fd5b600082601f8301126200015d57600080fd5b81516001600160401b03808211156200017a576200017a62000135565b604051601f8301601f19908116603f01168101908282118183101715620001a557620001a562000135565b81604052838152602092508683858801011115620001c257600080fd5b600091505b83821015620001e65785820183015181830184015290820190620001c7565b83821115620001f85760008385830101525b9695505050505050565b600080604083850312156200021657600080fd5b82516001600160401b03808211156200022e57600080fd5b6200023c868387016200014b565b935060208501519150808211156200025357600080fd5b5062000262858286016200014b565b9150509250929050565b600181811c908216806200028157607f821691505b60208210811415620002a357634e487b7160e01b600052602260045260246000fd5b50919050565b61202180620002b96000396000f3fe6080604052600436106101405760003560e01c80635774a4cb116100b65780639a4dc41e1161006f5780639a4dc41e146103b4578063a457c2d7146103d4578063a9059cbb146103f4578063cbd9805014610414578063dd62ed3e14610441578063e792dd8a1461046157600080fd5b80635774a4cb1461030357806370a08231146103165780637a52f30e1461034c5780637d4dc269146103795780638ea6bde31461038c57806395d89b411461039f57600080fd5b806323b872dd1161010857806323b872dd146102095780632f7e8a7814610229578063313ce5671461025957806332d2ad8a14610275578063395093511461028a5780634845a295146102aa57600080fd5b806301a1df741461014557806306fdde031461015a578063095ea7b31461018557806318160ddd146101b55780631d6b8b72146101d4575b600080fd5b6101586101533660046119df565b610491565b005b34801561016657600080fd5b5061016f610649565b60405161017c9190611a50565b60405180910390f35b34801561019157600080fd5b506101a56101a0366004611a86565b6106db565b604051901515815260200161017c565b3480156101c157600080fd5b506002545b60405190815260200161017c565b3480156101e057600080fd5b506101f46101ef3660046119df565b6106f5565b60405161017c99989796959493929190611ab0565b34801561021557600080fd5b506101a5610224366004611b12565b6107e9565b34801561023557600080fd5b506101a5610244366004611b4e565b60086020526000908152604090205460ff1681565b34801561026557600080fd5b506040516012815260200161017c565b34801561028157600080fd5b50600a546101c6565b34801561029657600080fd5b506101a56102a5366004611a86565b61080d565b3480156102b657600080fd5b506102eb6102c5366004611c0c565b80516020818301810180516006825292820191909301209152546001600160a01b031681565b6040516001600160a01b03909116815260200161017c565b610158610311366004611c49565b61082f565b34801561032257600080fd5b506101c6610331366004611b4e565b6001600160a01b031660009081526020819052604090205490565b34801561035857600080fd5b506101c6610367366004611b4e565b60076020526000908152604090205481565b610158610387366004611d22565b610c1c565b61015861039a366004611dc2565b610eaa565b3480156103ab57600080fd5b5061016f611118565b3480156103c057600080fd5b5061016f6103cf366004611de4565b611127565b3480156103e057600080fd5b506101a56103ef366004611a86565b61122a565b34801561040057600080fd5b506101a561040f366004611a86565b6112a5565b34801561042057600080fd5b5061043461042f3660046119df565b6112b3565b60405161017c9190611e26565b34801561044d57600080fd5b506101c661045c366004611e6a565b61132f565b34801561046d57600080fd5b5061048161047c3660046119df565b61135a565b60405161017c9493929190611e9d565b6104996114b1565b600a5434146104c35760405162461bcd60e51b81526004016104ba90611ee1565b60405180910390fd5b3360009081526008602052604090205460ff166105345760405162461bcd60e51b815260206004820152602960248201527f4f6e6c79206f7267616e697a6174696f6e2063616e20706572666f726d20746860448201526834b99030b1ba34b7b760b91b60648201526084016104ba565b33600090815260076020526040902054600c80548390811061055857610558611f29565b906000526020600020906009020160010154146105cb5760405162461bcd60e51b815260206004820152602b60248201527f6572726f723a2075736572206973206e6f74206f66207468652073616d65206f60448201526a3933b0b734bd30ba34b7b760a91b60648201526084016104ba565b6001600c82815481106105e0576105e0611f29565b600091825260208220600991820201600801805460ff1916931515939093179092559054600a546040516001600160a01b03909216926108fc8215029290818181858888f1935050505015801561063b573d6000803e3d6000fd5b506106466001600555565b50565b60606003805461065890611f3f565b80601f016020809104026020016040519081016040528092919081815260200182805461068490611f3f565b80156106d15780601f106106a6576101008083540402835291602001916106d1565b820191906000526020600020905b8154815290600101906020018083116106b457829003601f168201915b5050505050905090565b6000336106e981858561150b565b60019150505b92915050565b600c818154811061070557600080fd5b6000918252602090912060099091020180546001820154600283015460038401805493955091936001600160a01b039091169290919061074490611f3f565b80601f016020809104026020016040519081016040528092919081815260200182805461077090611f3f565b80156107bd5780601f10610792576101008083540402835291602001916107bd565b820191906000526020600020905b8154815290600101906020018083116107a057829003601f168201915b505050600484015460058501546006860154600787015460089097015495969295919450925060ff1689565b6000336107f785828561162f565b6108028585856116a9565b506001949350505050565b6000336106e9818585610820838361132f565b61082a9190611f90565b61150b565b6108376114b1565b600a5434146108585760405162461bcd60e51b81526004016104ba90611ee1565b3360009081526008602052604090205460ff166108a65760405162461bcd60e51b815260206004820152600c60248201526b155b985d5d1a1bdc9a5e995960a21b60448201526064016104ba565b600b5481106109025760405162461bcd60e51b815260206004820152602260248201527f6572726f723a206f7267616e697a6174696f6e20646f6573206e6f74206578696044820152611cdd60f21b60648201526084016104ba565b60006001600160a01b031660068360405161091d9190611fa8565b908152604051908190036020019020546001600160a01b0316146109835760405162461bcd60e51b815260206004820152601e60248201527f6572726f723a206163636f756e7420616c72656164792065786973747321000060448201526064016104ba565b600c5461099757600c805460010181556000525b6040805161012081018252600c805480835260208084018681526001600160a01b038c8116968601968752606086018c8152608087018c90524260a088015260c087018b9052600060e0880181905261010088018190526001860187559590955285517fdf6966c971051c3d54ec59162606531493a51404a002842f56009d7e5cf4a8c7600990950294850190815591517fdf6966c971051c3d54ec59162606531493a51404a002842f56009d7e5cf4a8c885015595517fdf6966c971051c3d54ec59162606531493a51404a002842f56009d7e5cf4a8c9840180546001600160a01b031916919097161790955591518051939485949093610abd937fdf6966c971051c3d54ec59162606531493a51404a002842f56009d7e5cf4a8ca0192019061190c565b506080820151816004015560a0820151816005015560c0820151816006015560e082015181600701556101008201518160080160006101000a81548160ff021916908315150217905550505086600684604051610b1a9190611fa8565b908152604080516020928190038301902080546001600160a01b0319166001600160a01b039485161790558351928a1660009081526007909252902055600b805483908110610b6b57610b6b611f29565b6000918252602080832084516005939093020160040180546001810182559084529281902090920155604080514281529182018790527f95af58709ae003a33c5614254739baeb7c6c40fc50fb2a263b2c410841b9e1d9910160405180910390a1600954600a546040516001600160a01b039092169181156108fc0291906000818181858888f19350505050158015610c08573d6000803e3d6000fd5b5050610c146001600555565b505050505050565b610c246114b1565b600a543414610c455760405162461bcd60e51b81526004016104ba90611ee1565b60006001600160a01b031660068484604051610c62929190611fc4565b908152604051908190036020019020546001600160a01b031614610cc85760405162461bcd60e51b815260206004820152601e60248201527f6572726f723a206163636f756e7420616c72656164792065786973747321000060448201526064016104ba565b600b54610cdc57600b805460010181556000525b6040805160a0810182526001600160a01b038381168252600b805460208085018281528587018c8152606087018c90528751600080825281850190995260808801526001840185559390965284517f0175b7a638427703f0dbe7bb9bbf987a2551717b34e79f33b5b1008d1fa01db9600590930292830180546001600160a01b0319169190951617845594517f0175b7a638427703f0dbe7bb9bbf987a2551717b34e79f33b5b1008d1fa01dba8201559051805193948594610dc4937f0175b7a638427703f0dbe7bb9bbf987a2551717b34e79f33b5b1008d1fa01dbb01929091019061190c565b5060608201518051610de091600384019160209091019061190c565b5060808201518051610dfc916004840191602090910190611990565b5050508160068585604051610e12929190611fc4565b908152604080516020928190038301812080546001600160a01b0319166001600160a01b0395861617905584830151868516600090815260078552838120919091556008909352908220805460ff19166001179055600954600a549316926108fc81150292909190818181858888f19350505050158015610e97573d6000803e3d6000fd5b5050610ea36001600555565b5050505050565b610eb26114b1565b600a543414610ed35760405162461bcd60e51b81526004016104ba90611ee1565b6001600c8281548110610ee857610ee8611f29565b60009182526020909120600990910201600801805460ff1916821515179055610f535760405162461bcd60e51b815260206004820152601760248201527f596f7520617265206e6f742077686974656c697374656400000000000000000060448201526064016104ba565b600c8181548110610f6657610f66611f29565b906000526020600020906009020160040154421015610fc75760405162461bcd60e51b815260206004820152601760248201527f56657374696e6720706572696f64206e6f74206f76657200000000000000000060448201526064016104ba565b81600c8281548110610fdb57610fdb611f29565b906000526020600020906009020160060154101561104f5760405162461bcd60e51b815260206004820152602b60248201527f596f752063616e277420636c61696d206d6f726520746f6b656e73207468616e60448201526a081dd85cc81d995cdd195960aa1b60648201526084016104ba565b611059338361184d565b81600c828154811061106d5761106d611f29565b9060005260206000209060090201600601600082825461108d9190611fd4565b9250508190555081600c82815481106110a8576110a8611f29565b906000526020600020906009020160070160008282546110c89190611f90565b9091555050600954600a546040516001600160a01b039092169181156108fc0291906000818181858888f19350505050158015611109573d6000803e3d6000fd5b506111146001600555565b5050565b60606004805461065890611f3f565b60606006838360405161113b929190611fc4565b90815260405190819003602001902054336001600160a01b03909116146111c05760405162461bcd60e51b815260206004820152603360248201527f4572726f723a20496e636f72726563742077616c6c65742061646472657373206044820152723ab9b2b2103337b91039b4b3b734b7339034b760691b60648201526084016104ba565b3360009081526008602052604090205460ff1615611201575060408051808201909152600c81526b37b933b0b734bd30ba34b7b760a11b60208201526106ef565b5060408051808201909152600b81526a39ba30b5b2b437b63232b960a91b602082015292915050565b60003381611238828661132f565b9050838110156112985760405162461bcd60e51b815260206004820152602560248201527f45524332303a2064656372656173656420616c6c6f77616e63652062656c6f77604482015264207a65726f60d81b60648201526084016104ba565b610802828686840361150b565b6000336106e98185856116a9565b6060600b82815481106112c8576112c8611f29565b906000526020600020906005020160040180548060200260200160405190810160405280929190818152602001828054801561132357602002820191906000526020600020905b81548152602001906001019080831161130f575b50505050509050919050565b6001600160a01b03918216600090815260016020908152604080832093909416825291909152205490565b600b818154811061136a57600080fd5b60009182526020909120600590910201805460018201546002830180546001600160a01b0390931694509092916113a090611f3f565b80601f01602080910402602001604051908101604052809291908181526020018280546113cc90611f3f565b80156114195780601f106113ee57610100808354040283529160200191611419565b820191906000526020600020905b8154815290600101906020018083116113fc57829003601f168201915b50505050509080600301805461142e90611f3f565b80601f016020809104026020016040519081016040528092919081815260200182805461145a90611f3f565b80156114a75780601f1061147c576101008083540402835291602001916114a7565b820191906000526020600020905b81548152906001019060200180831161148a57829003601f168201915b5050505050905084565b600260055414156115045760405162461bcd60e51b815260206004820152601f60248201527f5265656e7472616e637947756172643a207265656e7472616e742063616c6c0060448201526064016104ba565b6002600555565b6001600160a01b03831661156d5760405162461bcd60e51b8152602060048201526024808201527f45524332303a20617070726f76652066726f6d20746865207a65726f206164646044820152637265737360e01b60648201526084016104ba565b6001600160a01b0382166115ce5760405162461bcd60e51b815260206004820152602260248201527f45524332303a20617070726f766520746f20746865207a65726f206164647265604482015261737360f01b60648201526084016104ba565b6001600160a01b0383811660008181526001602090815260408083209487168084529482529182902085905590518481527f8c5be1e5ebec7d5bd14f71427d1e84f3dd0314c0f7b2291e5b200ac8c7c3b925910160405180910390a3505050565b600061163b848461132f565b905060001981146116a357818110156116965760405162461bcd60e51b815260206004820152601d60248201527f45524332303a20696e73756666696369656e7420616c6c6f77616e636500000060448201526064016104ba565b6116a3848484840361150b565b50505050565b6001600160a01b03831661170d5760405162461bcd60e51b815260206004820152602560248201527f45524332303a207472616e736665722066726f6d20746865207a65726f206164604482015264647265737360d81b60648201526084016104ba565b6001600160a01b03821661176f5760405162461bcd60e51b815260206004820152602360248201527f45524332303a207472616e7366657220746f20746865207a65726f206164647260448201526265737360e81b60648201526084016104ba565b6001600160a01b038316600090815260208190526040902054818110156117e75760405162461bcd60e51b815260206004820152602660248201527f45524332303a207472616e7366657220616d6f756e7420657863656564732062604482015265616c616e636560d01b60648201526084016104ba565b6001600160a01b03848116600081815260208181526040808320878703905593871680835291849020805487019055925185815290927fddf252ad1be2c89b69c2b068fc378daa952ba7f163c4a11628f55a4df523b3ef910160405180910390a36116a3565b6001600160a01b0382166118a35760405162461bcd60e51b815260206004820152601f60248201527f45524332303a206d696e7420746f20746865207a65726f20616464726573730060448201526064016104ba565b80600260008282546118b59190611f90565b90915550506001600160a01b038216600081815260208181526040808320805486019055518481527fddf252ad1be2c89b69c2b068fc378daa952ba7f163c4a11628f55a4df523b3ef910160405180910390a35050565b82805461191890611f3f565b90600052602060002090601f01602090048101928261193a5760008555611980565b82601f1061195357805160ff1916838001178555611980565b82800160010185558215611980579182015b82811115611980578251825591602001919060010190611965565b5061198c9291506119ca565b5090565b8280548282559060005260206000209081019282156119805791602002820182811115611980578251825591602001919060010190611965565b5b8082111561198c57600081556001016119cb565b6000602082840312156119f157600080fd5b5035919050565b60005b83811015611a135781810151838201526020016119fb565b838111156116a35750506000910152565b60008151808452611a3c8160208601602086016119f8565b601f01601f19169290920160200192915050565b602081526000611a636020830184611a24565b9392505050565b80356001600160a01b0381168114611a8157600080fd5b919050565b60008060408385031215611a9957600080fd5b611aa283611a6a565b946020939093013593505050565b898152602081018990526001600160a01b038816604082015261012060608201819052600090611ae28382018a611a24565b6080840198909852505060a081019490945260c084019290925260e0830152151561010090910152949350505050565b600080600060608486031215611b2757600080fd5b611b3084611a6a565b9250611b3e60208501611a6a565b9150604084013590509250925092565b600060208284031215611b6057600080fd5b611a6382611a6a565b634e487b7160e01b600052604160045260246000fd5b600082601f830112611b9057600080fd5b813567ffffffffffffffff80821115611bab57611bab611b69565b604051601f8301601f19908116603f01168101908282118183101715611bd357611bd3611b69565b81604052838152866020858801011115611bec57600080fd5b836020870160208301376000602085830101528094505050505092915050565b600060208284031215611c1e57600080fd5b813567ffffffffffffffff811115611c3557600080fd5b611c4184828501611b7f565b949350505050565b60008060008060008060c08789031215611c6257600080fd5b611c6b87611a6a565b9550602087013567ffffffffffffffff80821115611c8857600080fd5b611c948a838b01611b7f565b965060408901359550606089013594506080890135915080821115611cb857600080fd5b50611cc589828a01611b7f565b92505060a087013590509295509295509295565b60008083601f840112611ceb57600080fd5b50813567ffffffffffffffff811115611d0357600080fd5b602083019150836020828501011115611d1b57600080fd5b9250929050565b600080600080600060808688031215611d3a57600080fd5b853567ffffffffffffffff80821115611d5257600080fd5b611d5e89838a01611b7f565b96506020880135915080821115611d7457600080fd5b611d8089838a01611b7f565b95506040880135915080821115611d9657600080fd5b50611da388828901611cd9565b9094509250611db6905060608701611a6a565b90509295509295909350565b60008060408385031215611dd557600080fd5b50508035926020909101359150565b60008060208385031215611df757600080fd5b823567ffffffffffffffff811115611e0e57600080fd5b611e1a85828601611cd9565b90969095509350505050565b6020808252825182820181905260009190848201906040850190845b81811015611e5e57835183529284019291840191600101611e42565b50909695505050505050565b60008060408385031215611e7d57600080fd5b611e8683611a6a565b9150611e9460208401611a6a565b90509250929050565b60018060a01b0385168152836020820152608060408201526000611ec46080830185611a24565b8281036060840152611ed68185611a24565b979650505050505050565b60208082526028908201527f5072696365206d75737420626520657175616c20746f207472616e73616374696040820152676f6e20707269636560c01b606082015260800190565b634e487b7160e01b600052603260045260246000fd5b600181811c90821680611f5357607f821691505b60208210811415611f7457634e487b7160e01b600052602260045260246000fd5b50919050565b634e487b7160e01b600052601160045260246000fd5b60008219821115611fa357611fa3611f7a565b500190565b60008251611fba8184602087016119f8565b9190910192915050565b8183823760009101908152919050565b600082821015611fe657611fe6611f7a565b50039056fea264697066735822122043f6d4d24da31f31875b7a99dc3330808c7c8284b90f300ca7af6f7114da5c8764736f6c63430008090033",
  "linkReferences": {},
  "deployedLinkReferences": {}
}