{
  "_format": "hh-sol-artifact-1",
  "contractName": "Vesting",
  "sourceName": "contracts/Vesting.sol",
  "abi": [
    {
      "inputs": [
        {
          "internalType": "string",
          "name": "name",
          "type": "string"
        },
        {
          "internalType": "string",
          "name": "symbol",
          "type": "string"
        }
      ],
      "stateMutability": "nonpayable",
      "type": "constructor"
    },
    {
      "anonymous": false,
      "inputs": [
        {
          "indexed": true,
          "internalType": "address",
          "name": "owner",
          "type": "address"
        },
        {
          "indexed": true,
          "internalType": "address",
          "name": "spender",
          "type": "address"
        },
        {
          "indexed": false,
          "internalType": "uint256",
          "name": "value",
          "type": "uint256"
        }
      ],
      "name": "Approval",
      "type": "event"
    },
    {
      "anonymous": false,
      "inputs": [
        {
          "indexed": false,
          "internalType": "uint256",
          "name": "startTime",
          "type": "uint256"
        },
        {
          "indexed": false,
          "internalType": "uint256",
          "name": "vestingPeriod",
          "type": "uint256"
        }
      ],
      "name": "CreatedStakeholder",
      "type": "event"
    },
    {
      "anonymous": false,
      "inputs": [
        {
          "indexed": true,
          "internalType": "address",
          "name": "from",
          "type": "address"
        },
        {
          "indexed": true,
          "internalType": "address",
          "name": "to",
          "type": "address"
        },
        {
          "indexed": false,
          "internalType": "uint256",
          "name": "value",
          "type": "uint256"
        }
      ],
      "name": "Transfer",
      "type": "event"
    },
    {
      "inputs": [
        {
          "internalType": "address",
          "name": "_stakeholderAddress",
          "type": "address"
        },
        {
          "internalType": "string",
          "name": "_role",
          "type": "string"
        },
        {
          "internalType": "uint256",
          "name": "_endTime",
          "type": "uint256"
        },
        {
          "internalType": "uint256",
          "name": "_tokenAmount",
          "type": "uint256"
        },
        {
          "internalType": "string",
          "name": "email",
          "type": "string"
        },
        {
          "internalType": "uint256",
          "name": "_orgId",
          "type": "uint256"
        }
      ],
      "name": "addStakeholder",
      "outputs": [],
      "stateMutability": "payable",
      "type": "function"
    },
    {
      "inputs": [
        {
          "internalType": "address",
          "name": "",
          "type": "address"
        }
      ],
      "name": "address_to_id",
      "outputs": [
        {
          "internalType": "uint256",
          "name": "",
          "type": "uint256"
        }
      ],
      "stateMutability": "view",
      "type": "function"
    },
    {
      "inputs": [
        {
          "internalType": "address",
          "name": "owner",
          "type": "address"
        },
        {
          "internalType": "address",
          "name": "spender",
          "type": "address"
        }
      ],
      "name": "allowance",
      "outputs": [
        {
          "internalType": "uint256",
          "name": "",
          "type": "uint256"
        }
      ],
      "stateMutability": "view",
      "type": "function"
    },
    {
      "inputs": [
        {
          "internalType": "address",
          "name": "spender",
          "type": "address"
        },
        {
          "internalType": "uint256",
          "name": "amount",
          "type": "uint256"
        }
      ],
      "name": "approve",
      "outputs": [
        {
          "internalType": "bool",
          "name": "",
          "type": "bool"
        }
      ],
      "stateMutability": "nonpayable",
      "type": "function"
    },
    {
      "inputs": [
        {
          "internalType": "address",
          "name": "account",
          "type": "address"
        }
      ],
      "name": "balanceOf",
      "outputs": [
        {
          "internalType": "uint256",
          "name": "",
          "type": "uint256"
        }
      ],
      "stateMutability": "view",
      "type": "function"
    },
    {
      "inputs": [
        {
          "internalType": "uint256",
          "name": "amount",
          "type": "uint256"
        },
        {
          "internalType": "uint256",
          "name": "userId",
          "type": "uint256"
        }
      ],
      "name": "claimTokens",
      "outputs": [],
      "stateMutability": "payable",
      "type": "function"
    },
    {
      "inputs": [],
      "name": "decimals",
      "outputs": [
        {
          "internalType": "uint8",
          "name": "",
          "type": "uint8"
        }
      ],
      "stateMutability": "view",
      "type": "function"
    },
    {
      "inputs": [
        {
          "internalType": "address",
          "name": "spender",
          "type": "address"
        },
        {
          "internalType": "uint256",
          "name": "subtractedValue",
          "type": "uint256"
        }
      ],
      "name": "decreaseAllowance",
      "outputs": [
        {
          "internalType": "bool",
          "name": "",
          "type": "bool"
        }
      ],
      "stateMutability": "nonpayable",
      "type": "function"
    },
    {
      "inputs": [
        {
          "internalType": "string",
          "name": "",
          "type": "string"
        }
      ],
      "name": "email_to_address",
      "outputs": [
        {
          "internalType": "address",
          "name": "",
          "type": "address"
        }
      ],
      "stateMutability": "view",
      "type": "function"
    },
    {
      "inputs": [],
      "name": "getTransactPrice",
      "outputs": [
        {
          "internalType": "uint256",
          "name": "",
          "type": "uint256"
        }
      ],
      "stateMutability": "view",
      "type": "function"
    },
    {
      "inputs": [
        {
          "internalType": "address",
          "name": "spender",
          "type": "address"
        },
        {
          "internalType": "uint256",
          "name": "addedValue",
          "type": "uint256"
        }
      ],
      "name": "increaseAllowance",
      "outputs": [
        {
          "internalType": "bool",
          "name": "",
          "type": "bool"
        }
      ],
      "stateMutability": "nonpayable",
      "type": "function"
    },
    {
      "inputs": [
        {
          "internalType": "address",
          "name": "",
          "type": "address"
        }
      ],
      "name": "is_organization",
      "outputs": [
        {
          "internalType": "bool",
          "name": "",
          "type": "bool"
        }
      ],
      "stateMutability": "view",
      "type": "function"
    },
    {
      "inputs": [],
      "name": "name",
      "outputs": [
        {
          "internalType": "string",
          "name": "",
          "type": "string"
        }
      ],
      "stateMutability": "view",
      "type": "function"
    },
    {
      "inputs": [
        {
          "internalType": "uint256",
          "name": "",
          "type": "uint256"
        }
      ],
      "name": "organizations",
      "outputs": [
        {
          "internalType": "address",
          "name": "orgAddress",
          "type": "address"
        },
        {
          "internalType": "uint256",
          "name": "id",
          "type": "uint256"
        },
        {
          "internalType": "string",
          "name": "name",
          "type": "string"
        },
        {
          "internalType": "string",
          "name": "symbol",
          "type": "string"
        }
      ],
      "stateMutability": "view",
      "type": "function"
    },
    {
      "inputs": [
        {
          "internalType": "string",
          "name": "name",
          "type": "string"
        },
        {
          "internalType": "string",
          "name": "symbol",
          "type": "string"
        },
        {
          "internalType": "string",
          "name": "email",
          "type": "string"
        },
        {
          "internalType": "address",
          "name": "orgAddress",
          "type": "address"
        }
      ],
      "name": "registerOrganization",
      "outputs": [],
      "stateMutability": "payable",
      "type": "function"
    },
    {
      "inputs": [
        {
          "internalType": "string",
          "name": "email",
          "type": "string"
        }
      ],
      "name": "signin",
      "outputs": [
        {
          "internalType": "string",
          "name": "accountType",
          "type": "string"
        },
        {
          "internalType": "address",
          "name": "_address",
          "type": "address"
        }
      ],
      "stateMutability": "view",
      "type": "function"
    },
    {
      "inputs": [
        {
          "internalType": "uint256",
          "name": "",
          "type": "uint256"
        }
      ],
      "name": "stakeholders",
      "outputs": [
        {
          "internalType": "uint256",
          "name": "id",
          "type": "uint256"
        },
        {
          "internalType": "uint256",
          "name": "orgId",
          "type": "uint256"
        },
        {
          "internalType": "address",
          "name": "userAddress",
          "type": "address"
        },
        {
          "internalType": "string",
          "name": "role",
          "type": "string"
        },
        {
          "internalType": "uint256",
          "name": "endTime",
          "type": "uint256"
        },
        {
          "internalType": "uint256",
          "name": "startTime",
          "type": "uint256"
        },
        {
          "internalType": "uint256",
          "name": "vestingPeriod",
          "type": "uint256"
        },
        {
          "internalType": "uint256",
          "name": "tokenAmount",
          "type": "uint256"
        },
        {
          "internalType": "uint256",
          "name": "claimedToken",
          "type": "uint256"
        },
        {
          "internalType": "bool",
          "name": "whitelisted",
          "type": "bool"
        }
      ],
      "stateMutability": "view",
      "type": "function"
    },
    {
      "inputs": [],
      "name": "symbol",
      "outputs": [
        {
          "internalType": "string",
          "name": "",
          "type": "string"
        }
      ],
      "stateMutability": "view",
      "type": "function"
    },
    {
      "inputs": [],
      "name": "totalSupply",
      "outputs": [
        {
          "internalType": "uint256",
          "name": "",
          "type": "uint256"
        }
      ],
      "stateMutability": "view",
      "type": "function"
    },
    {
      "inputs": [
        {
          "internalType": "address",
          "name": "to",
          "type": "address"
        },
        {
          "internalType": "uint256",
          "name": "amount",
          "type": "uint256"
        }
      ],
      "name": "transfer",
      "outputs": [
        {
          "internalType": "bool",
          "name": "",
          "type": "bool"
        }
      ],
      "stateMutability": "nonpayable",
      "type": "function"
    },
    {
      "inputs": [
        {
          "internalType": "address",
          "name": "from",
          "type": "address"
        },
        {
          "internalType": "address",
          "name": "to",
          "type": "address"
        },
        {
          "internalType": "uint256",
          "name": "amount",
          "type": "uint256"
        }
      ],
      "name": "transferFrom",
      "outputs": [
        {
          "internalType": "bool",
          "name": "",
          "type": "bool"
        }
      ],
      "stateMutability": "nonpayable",
      "type": "function"
    },
    {
      "inputs": [
        {
          "internalType": "uint256",
          "name": "stakeholderId",
          "type": "uint256"
        }
      ],
      "name": "whitelistStakeholder",
      "outputs": [],
      "stateMutability": "payable",
      "type": "function"
    }
  ],
  "bytecode": "0x6080604052655af3107a4000600a553480156200001b57600080fd5b50604051620022a7380380620022a78339810160408190526200003e9162000202565b815182908290620000579060039060208501906200008f565b5080516200006d9060049060208401906200008f565b505060016005555050600980546001600160a01b0319163317905550620002a9565b8280546200009d906200026c565b90600052602060002090601f016020900481019282620000c157600085556200010c565b82601f10620000dc57805160ff19168380011785556200010c565b828001600101855582156200010c579182015b828111156200010c578251825591602001919060010190620000ef565b506200011a9291506200011e565b5090565b5b808211156200011a57600081556001016200011f565b634e487b7160e01b600052604160045260246000fd5b600082601f8301126200015d57600080fd5b81516001600160401b03808211156200017a576200017a62000135565b604051601f8301601f19908116603f01168101908282118183101715620001a557620001a562000135565b81604052838152602092508683858801011115620001c257600080fd5b600091505b83821015620001e65785820183015181830184015290820190620001c7565b83821115620001f85760008385830101525b9695505050505050565b600080604083850312156200021657600080fd5b82516001600160401b03808211156200022e57600080fd5b6200023c868387016200014b565b935060208501519150808211156200025357600080fd5b5062000262858286016200014b565b9150509250929050565b600181811c908216806200028157607f821691505b60208210811415620002a357634e487b7160e01b600052602260045260246000fd5b50919050565b611fee80620002b96000396000f3fe6080604052600436106101355760003560e01c80635774a4cb116100ab57806395d89b411161006f57806395d89b41146103955780639a4dc41e146103aa578063a457c2d7146103d8578063a9059cbb146103f8578063dd62ed3e14610418578063e792dd8a1461043857600080fd5b80635774a4cb146102f957806370a082311461030c5780637a52f30e146103425780637d4dc2691461036f5780638ea6bde31461038257600080fd5b806323b872dd116100fd57806323b872dd146101ff5780632f7e8a781461021f578063313ce5671461024f57806332d2ad8a1461026b57806339509351146102805780634845a295146102a057600080fd5b806301a1df741461013a57806306fdde031461014f578063095ea7b31461017a57806318160ddd146101aa5780631d6b8b72146101c9575b600080fd5b61014d6101483660046119cb565b610468565b005b34801561015b57600080fd5b50610164610620565b6040516101719190611a3c565b60405180910390f35b34801561018657600080fd5b5061019a610195366004611a6b565b6106b2565b6040519015158152602001610171565b3480156101b657600080fd5b506002545b604051908152602001610171565b3480156101d557600080fd5b506101e96101e43660046119cb565b6106ca565b6040516101719a99989796959493929190611a95565b34801561020b57600080fd5b5061019a61021a366004611b00565b6107c6565b34801561022b57600080fd5b5061019a61023a366004611b3c565b60086020526000908152604090205460ff1681565b34801561025b57600080fd5b5060405160128152602001610171565b34801561027757600080fd5b50600a546101bb565b34801561028c57600080fd5b5061019a61029b366004611a6b565b6107ea565b3480156102ac57600080fd5b506102e16102bb366004611bfa565b80516020818301810180516006825292820191909301209152546001600160a01b031681565b6040516001600160a01b039091168152602001610171565b61014d610307366004611c37565b61080c565b34801561031857600080fd5b506101bb610327366004611b3c565b6001600160a01b031660009081526020819052604090205490565b34801561034e57600080fd5b506101bb61035d366004611b3c565b60076020526000908152604090205481565b61014d61037d366004611d09565b610c37565b61014d610390366004611da9565b610ec8565b3480156103a157600080fd5b50610164611165565b3480156103b657600080fd5b506103ca6103c5366004611dcb565b611174565b604051610171929190611e0d565b3480156103e457600080fd5b5061019a6103f3366004611a6b565b61127f565b34801561040457600080fd5b5061019a610413366004611a6b565b6112fa565b34801561042457600080fd5b506101bb610433366004611e37565b611308565b34801561044457600080fd5b506104586104533660046119cb565b611333565b6040516101719493929190611e6a565b61047061148a565b600a54341461049a5760405162461bcd60e51b815260040161049190611eae565b60405180910390fd5b3360009081526008602052604090205460ff1661050b5760405162461bcd60e51b815260206004820152602960248201527f4f6e6c79206f7267616e697a6174696f6e2063616e20706572666f726d20746860448201526834b99030b1ba34b7b760b91b6064820152608401610491565b33600090815260076020526040902054600c80548390811061052f5761052f611ef6565b90600052602060002090600a020160010154146105a25760405162461bcd60e51b815260206004820152602b60248201527f6572726f723a2075736572206973206e6f74206f66207468652073616d65206f60448201526a3933b0b734bd30ba34b7b760a91b6064820152608401610491565b6001600c82815481106105b7576105b7611ef6565b600091825260208220600a918202016009908101805460ff191694151594909417909355915491546040516001600160a01b03909316926108fc82150292818181858888f19350505050158015610612573d6000803e3d6000fd5b5061061d6001600555565b50565b60606003805461062f90611f0c565b80601f016020809104026020016040519081016040528092919081815260200182805461065b90611f0c565b80156106a85780601f1061067d576101008083540402835291602001916106a8565b820191906000526020600020905b81548152906001019060200180831161068b57829003601f168201915b5050505050905090565b6000336106c08185856114e4565b5060019392505050565b600c81815481106106da57600080fd5b60009182526020909120600a9091020180546001820154600283015460038401805493955091936001600160a01b039091169290919061071990611f0c565b80601f016020809104026020016040519081016040528092919081815260200182805461074590611f0c565b80156107925780601f1061076757610100808354040283529160200191610792565b820191906000526020600020905b81548152906001019060200180831161077557829003601f168201915b5050506004840154600585015460068601546007870154600888015460099098015496979396929550909350919060ff168a565b6000336107d4858285611608565b6107df858585611682565b506001949350505050565b6000336106c08185856107fd8383611308565b6108079190611f5d565b6114e4565b61081461148a565b600a5434146108355760405162461bcd60e51b815260040161049190611eae565b3360009081526008602052604090205460ff166108835760405162461bcd60e51b815260206004820152600c60248201526b155b985d5d1a1bdc9a5e995960a21b6044820152606401610491565b600b5481106108df5760405162461bcd60e51b815260206004820152602260248201527f6572726f723a206f7267616e697a6174696f6e20646f6573206e6f74206578696044820152611cdd60f21b6064820152608401610491565b60006001600160a01b03166006836040516108fa9190611f75565b908152604051908190036020019020546001600160a01b0316146109605760405162461bcd60e51b815260206004820152601e60248201527f6572726f723a206163636f756e7420616c7265616479206578697374732100006044820152606401610491565b600c5461097457600c805460010181556000525b6000604051806101400160405280600c805490508152602001838152602001886001600160a01b031681526020018781526020018681526020014281526020016109c7874261182690919063ffffffff16565b81526020808201879052600060408084018290526060938401829052600c8054600181018255925284517fdf6966c971051c3d54ec59162606531493a51404a002842f56009d7e5cf4a8c7600a909302928301908155858401517fdf6966c971051c3d54ec59162606531493a51404a002842f56009d7e5cf4a8c8840155908501517fdf6966c971051c3d54ec59162606531493a51404a002842f56009d7e5cf4a8c9830180546001600160a01b0319166001600160a01b039092169190911790559284015180519495508594610ac7937fdf6966c971051c3d54ec59162606531493a51404a002842f56009d7e5cf4a8ca9093019291909101906118f8565b506080820151816004015560a0820151816005015560c0820151816006015560e0820151816007015561010082015181600801556101208201518160090160006101000a81548160ff021916908315150217905550505086600684604051610b2f9190611f75565b908152604080516020928190038301902080546001600160a01b0319166001600160a01b039485161790558351928a1660009081526007909252902055600b805483908110610b8057610b80611ef6565b600091825260208083208451600593909302016004018054600181018255908452928190209092015560c082015160408051428152928301919091527f95af58709ae003a33c5614254739baeb7c6c40fc50fb2a263b2c410841b9e1d9910160405180910390a1600954600a546040516001600160a01b039092169181156108fc0291906000818181858888f19350505050158015610c23573d6000803e3d6000fd5b5050610c2f6001600555565b505050505050565b610c3f61148a565b600a543414610c605760405162461bcd60e51b815260040161049190611eae565b60006001600160a01b031660068484604051610c7d929190611f91565b908152604051908190036020019020546001600160a01b031614610ce35760405162461bcd60e51b815260206004820152601e60248201527f6572726f723a206163636f756e7420616c7265616479206578697374732100006044820152606401610491565b600b54610cf757600b805460010181556000525b6040805160a0810182526001600160a01b038381168252600b805460208085018281528587018c8152606087018c90528751600080825281850190995260808801526001840185559390965284517f0175b7a638427703f0dbe7bb9bbf987a2551717b34e79f33b5b1008d1fa01db9600590930292830180546001600160a01b0319169190951617845594517f0175b7a638427703f0dbe7bb9bbf987a2551717b34e79f33b5b1008d1fa01dba8201559051805193948594610ddf937f0175b7a638427703f0dbe7bb9bbf987a2551717b34e79f33b5b1008d1fa01dbb0192909101906118f8565b5060608201518051610dfb9160038401916020909101906118f8565b5060808201518051610e1791600484019160209091019061197c565b5050508160068585604051610e2d929190611f91565b908152604080516020928190038301812080546001600160a01b0319166001600160a01b0395861617905584830151868516600090815260078552838120919091553381526008909352908220805460ff19166001179055600954600a549316926108fc81150292909190818181858888f19350505050158015610eb5573d6000803e3d6000fd5b5050610ec16001600555565b5050505050565b610ed061148a565b600a543414610ef15760405162461bcd60e51b815260040161049190611eae565b6001600c8281548110610f0657610f06611ef6565b60009182526020909120600a90910201600901805460ff1916821515179055610f715760405162461bcd60e51b815260206004820152601760248201527f596f7520617265206e6f742077686974656c69737465640000000000000000006044820152606401610491565b600c8181548110610f8457610f84611ef6565b90600052602060002090600a020160060154421015610fe55760405162461bcd60e51b815260206004820152601760248201527f56657374696e6720706572696f64206e6f74206f7665720000000000000000006044820152606401610491565b81600c8281548110610ff957610ff9611ef6565b90600052602060002090600a020160070154101561106d5760405162461bcd60e51b815260206004820152602b60248201527f596f752063616e277420636c61696d206d6f726520746f6b656e73207468616e60448201526a081dd85cc81d995cdd195960aa1b6064820152608401610491565b6110a6600c828154811061108357611083611ef6565b600091825260209091206002600a9092020101546001600160a01b031683611839565b81600c82815481106110ba576110ba611ef6565b90600052602060002090600a020160070160008282546110da9190611fa1565b9250508190555081600c82815481106110f5576110f5611ef6565b90600052602060002090600a020160080160008282546111159190611f5d565b9091555050600954600a546040516001600160a01b039092169181156108fc0291906000818181858888f19350505050158015611156573d6000803e3d6000fd5b506111616001600555565b5050565b60606004805461062f90611f0c565b606060006006848460405161118a929190611f91565b90815260405190819003602001902054336001600160a01b039091161461120f5760405162461bcd60e51b815260206004820152603360248201527f4572726f723a20496e636f72726563742077616c6c65742061646472657373206044820152723ab9b2b2103337b91039b4b3b734b7339034b760691b6064820152608401610491565b3360009081526008602052604090205460ff161561125257505060408051808201909152600c81526b37b933b0b734bd30ba34b7b760a11b602082015233611278565b505060408051808201909152600b81526a39ba30b5b2b437b63232b960a91b6020820152335b9250929050565b6000338161128d8286611308565b9050838110156112ed5760405162461bcd60e51b815260206004820152602560248201527f45524332303a2064656372656173656420616c6c6f77616e63652062656c6f77604482015264207a65726f60d81b6064820152608401610491565b6107df82868684036114e4565b6000336106c0818585611682565b6001600160a01b03918216600090815260016020908152604080832093909416825291909152205490565b600b818154811061134357600080fd5b60009182526020909120600590910201805460018201546002830180546001600160a01b03909316945090929161137990611f0c565b80601f01602080910402602001604051908101604052809291908181526020018280546113a590611f0c565b80156113f25780601f106113c7576101008083540402835291602001916113f2565b820191906000526020600020905b8154815290600101906020018083116113d557829003601f168201915b50505050509080600301805461140790611f0c565b80601f016020809104026020016040519081016040528092919081815260200182805461143390611f0c565b80156114805780601f1061145557610100808354040283529160200191611480565b820191906000526020600020905b81548152906001019060200180831161146357829003601f168201915b5050505050905084565b600260055414156114dd5760405162461bcd60e51b815260206004820152601f60248201527f5265656e7472616e637947756172643a207265656e7472616e742063616c6c006044820152606401610491565b6002600555565b6001600160a01b0383166115465760405162461bcd60e51b8152602060048201526024808201527f45524332303a20617070726f76652066726f6d20746865207a65726f206164646044820152637265737360e01b6064820152608401610491565b6001600160a01b0382166115a75760405162461bcd60e51b815260206004820152602260248201527f45524332303a20617070726f766520746f20746865207a65726f206164647265604482015261737360f01b6064820152608401610491565b6001600160a01b0383811660008181526001602090815260408083209487168084529482529182902085905590518481527f8c5be1e5ebec7d5bd14f71427d1e84f3dd0314c0f7b2291e5b200ac8c7c3b925910160405180910390a3505050565b60006116148484611308565b9050600019811461167c578181101561166f5760405162461bcd60e51b815260206004820152601d60248201527f45524332303a20696e73756666696369656e7420616c6c6f77616e63650000006044820152606401610491565b61167c84848484036114e4565b50505050565b6001600160a01b0383166116e65760405162461bcd60e51b815260206004820152602560248201527f45524332303a207472616e736665722066726f6d20746865207a65726f206164604482015264647265737360d81b6064820152608401610491565b6001600160a01b0382166117485760405162461bcd60e51b815260206004820152602360248201527f45524332303a207472616e7366657220746f20746865207a65726f206164647260448201526265737360e81b6064820152608401610491565b6001600160a01b038316600090815260208190526040902054818110156117c05760405162461bcd60e51b815260206004820152602660248201527f45524332303a207472616e7366657220616d6f756e7420657863656564732062604482015265616c616e636560d01b6064820152608401610491565b6001600160a01b03848116600081815260208181526040808320878703905593871680835291849020805487019055925185815290927fddf252ad1be2c89b69c2b068fc378daa952ba7f163c4a11628f55a4df523b3ef910160405180910390a361167c565b60006118328284611f5d565b9392505050565b6001600160a01b03821661188f5760405162461bcd60e51b815260206004820152601f60248201527f45524332303a206d696e7420746f20746865207a65726f2061646472657373006044820152606401610491565b80600260008282546118a19190611f5d565b90915550506001600160a01b038216600081815260208181526040808320805486019055518481527fddf252ad1be2c89b69c2b068fc378daa952ba7f163c4a11628f55a4df523b3ef910160405180910390a35050565b82805461190490611f0c565b90600052602060002090601f016020900481019282611926576000855561196c565b82601f1061193f57805160ff191683800117855561196c565b8280016001018555821561196c579182015b8281111561196c578251825591602001919060010190611951565b506119789291506119b6565b5090565b82805482825590600052602060002090810192821561196c579160200282018281111561196c578251825591602001919060010190611951565b5b8082111561197857600081556001016119b7565b6000602082840312156119dd57600080fd5b5035919050565b60005b838110156119ff5781810151838201526020016119e7565b8381111561167c5750506000910152565b60008151808452611a288160208601602086016119e4565b601f01601f19169290920160200192915050565b6020815260006118326020830184611a10565b80356001600160a01b0381168114611a6657600080fd5b919050565b60008060408385031215611a7e57600080fd5b611a8783611a4f565b946020939093013593505050565b8a8152602081018a90526001600160a01b038916604082015261014060608201819052600090611ac78382018b611a10565b6080840199909952505060a081019590955260c085019390935260e0840191909152610100830152151561012090910152949350505050565b600080600060608486031215611b1557600080fd5b611b1e84611a4f565b9250611b2c60208501611a4f565b9150604084013590509250925092565b600060208284031215611b4e57600080fd5b61183282611a4f565b634e487b7160e01b600052604160045260246000fd5b600082601f830112611b7e57600080fd5b813567ffffffffffffffff80821115611b9957611b99611b57565b604051601f8301601f19908116603f01168101908282118183101715611bc157611bc1611b57565b81604052838152866020858801011115611bda57600080fd5b836020870160208301376000602085830101528094505050505092915050565b600060208284031215611c0c57600080fd5b813567ffffffffffffffff811115611c2357600080fd5b611c2f84828501611b6d565b949350505050565b60008060008060008060c08789031215611c5057600080fd5b611c5987611a4f565b9550602087013567ffffffffffffffff80821115611c7657600080fd5b611c828a838b01611b6d565b965060408901359550606089013594506080890135915080821115611ca657600080fd5b50611cb389828a01611b6d565b92505060a087013590509295509295509295565b60008083601f840112611cd957600080fd5b50813567ffffffffffffffff811115611cf157600080fd5b60208301915083602082850101111561127857600080fd5b600080600080600060808688031215611d2157600080fd5b853567ffffffffffffffff80821115611d3957600080fd5b611d4589838a01611b6d565b96506020880135915080821115611d5b57600080fd5b611d6789838a01611b6d565b95506040880135915080821115611d7d57600080fd5b50611d8a88828901611cc7565b9094509250611d9d905060608701611a4f565b90509295509295909350565b60008060408385031215611dbc57600080fd5b50508035926020909101359150565b60008060208385031215611dde57600080fd5b823567ffffffffffffffff811115611df557600080fd5b611e0185828601611cc7565b90969095509350505050565b604081526000611e206040830185611a10565b905060018060a01b03831660208301529392505050565b60008060408385031215611e4a57600080fd5b611e5383611a4f565b9150611e6160208401611a4f565b90509250929050565b60018060a01b0385168152836020820152608060408201526000611e916080830185611a10565b8281036060840152611ea38185611a10565b979650505050505050565b60208082526028908201527f5072696365206d75737420626520657175616c20746f207472616e73616374696040820152676f6e20707269636560c01b606082015260800190565b634e487b7160e01b600052603260045260246000fd5b600181811c90821680611f2057607f821691505b60208210811415611f4157634e487b7160e01b600052602260045260246000fd5b50919050565b634e487b7160e01b600052601160045260246000fd5b60008219821115611f7057611f70611f47565b500190565b60008251611f878184602087016119e4565b9190910192915050565b8183823760009101908152919050565b600082821015611fb357611fb3611f47565b50039056fea26469706673582212205bb02a65e8eacac129d90e3a4eeafe20719deea8829cbc44f6a977dd9496e0bc64736f6c63430008090033",
  "linkReferences": {},
  "deployedLinkReferences": {}
}