{
  "_format": "hh-sol-artifact-1",
  "contractName": "Vesting",
  "sourceName": "contracts/Vesting.sol",
  "abi": [
    {
      "inputs": [
        {
          "internalType": "string",
          "name": "name",
          "type": "string"
        },
        {
          "internalType": "string",
          "name": "symbol",
          "type": "string"
        }
      ],
      "stateMutability": "nonpayable",
      "type": "constructor"
    },
    {
      "anonymous": false,
      "inputs": [
        {
          "indexed": true,
          "internalType": "address",
          "name": "owner",
          "type": "address"
        },
        {
          "indexed": true,
          "internalType": "address",
          "name": "spender",
          "type": "address"
        },
        {
          "indexed": false,
          "internalType": "uint256",
          "name": "value",
          "type": "uint256"
        }
      ],
      "name": "Approval",
      "type": "event"
    },
    {
      "anonymous": false,
      "inputs": [
        {
          "indexed": false,
          "internalType": "uint256",
          "name": "startTime",
          "type": "uint256"
        },
        {
          "indexed": false,
          "internalType": "uint256",
          "name": "vestingPeriod",
          "type": "uint256"
        }
      ],
      "name": "CreatedStakeholder",
      "type": "event"
    },
    {
      "anonymous": false,
      "inputs": [
        {
          "indexed": true,
          "internalType": "address",
          "name": "from",
          "type": "address"
        },
        {
          "indexed": true,
          "internalType": "address",
          "name": "to",
          "type": "address"
        },
        {
          "indexed": false,
          "internalType": "uint256",
          "name": "value",
          "type": "uint256"
        }
      ],
      "name": "Transfer",
      "type": "event"
    },
    {
      "inputs": [
        {
          "internalType": "address",
          "name": "_stakeholderAddress",
          "type": "address"
        },
        {
          "internalType": "string",
          "name": "_role",
          "type": "string"
        },
        {
          "internalType": "uint256",
          "name": "_endTime",
          "type": "uint256"
        },
        {
          "internalType": "uint256",
          "name": "_tokenAmount",
          "type": "uint256"
        },
        {
          "internalType": "string",
          "name": "email",
          "type": "string"
        },
        {
          "internalType": "uint256",
          "name": "_orgId",
          "type": "uint256"
        }
      ],
      "name": "addStakeholder",
      "outputs": [],
      "stateMutability": "payable",
      "type": "function"
    },
    {
      "inputs": [
        {
          "internalType": "address",
          "name": "",
          "type": "address"
        }
      ],
      "name": "address_to_id",
      "outputs": [
        {
          "internalType": "uint256",
          "name": "",
          "type": "uint256"
        }
      ],
      "stateMutability": "view",
      "type": "function"
    },
    {
      "inputs": [
        {
          "internalType": "address",
          "name": "owner",
          "type": "address"
        },
        {
          "internalType": "address",
          "name": "spender",
          "type": "address"
        }
      ],
      "name": "allowance",
      "outputs": [
        {
          "internalType": "uint256",
          "name": "",
          "type": "uint256"
        }
      ],
      "stateMutability": "view",
      "type": "function"
    },
    {
      "inputs": [
        {
          "internalType": "address",
          "name": "spender",
          "type": "address"
        },
        {
          "internalType": "uint256",
          "name": "amount",
          "type": "uint256"
        }
      ],
      "name": "approve",
      "outputs": [
        {
          "internalType": "bool",
          "name": "",
          "type": "bool"
        }
      ],
      "stateMutability": "nonpayable",
      "type": "function"
    },
    {
      "inputs": [
        {
          "internalType": "address",
          "name": "account",
          "type": "address"
        }
      ],
      "name": "balanceOf",
      "outputs": [
        {
          "internalType": "uint256",
          "name": "",
          "type": "uint256"
        }
      ],
      "stateMutability": "view",
      "type": "function"
    },
    {
      "inputs": [
        {
          "internalType": "uint256",
          "name": "amount",
          "type": "uint256"
        },
        {
          "internalType": "uint256",
          "name": "userId",
          "type": "uint256"
        }
      ],
      "name": "claimTokens",
      "outputs": [],
      "stateMutability": "payable",
      "type": "function"
    },
    {
      "inputs": [],
      "name": "decimals",
      "outputs": [
        {
          "internalType": "uint8",
          "name": "",
          "type": "uint8"
        }
      ],
      "stateMutability": "view",
      "type": "function"
    },
    {
      "inputs": [
        {
          "internalType": "address",
          "name": "spender",
          "type": "address"
        },
        {
          "internalType": "uint256",
          "name": "subtractedValue",
          "type": "uint256"
        }
      ],
      "name": "decreaseAllowance",
      "outputs": [
        {
          "internalType": "bool",
          "name": "",
          "type": "bool"
        }
      ],
      "stateMutability": "nonpayable",
      "type": "function"
    },
    {
      "inputs": [
        {
          "internalType": "string",
          "name": "",
          "type": "string"
        }
      ],
      "name": "email_to_address",
      "outputs": [
        {
          "internalType": "address",
          "name": "",
          "type": "address"
        }
      ],
      "stateMutability": "view",
      "type": "function"
    },
    {
      "inputs": [],
      "name": "getTransactPrice",
      "outputs": [
        {
          "internalType": "uint256",
          "name": "",
          "type": "uint256"
        }
      ],
      "stateMutability": "view",
      "type": "function"
    },
    {
      "inputs": [
        {
          "internalType": "address",
          "name": "spender",
          "type": "address"
        },
        {
          "internalType": "uint256",
          "name": "addedValue",
          "type": "uint256"
        }
      ],
      "name": "increaseAllowance",
      "outputs": [
        {
          "internalType": "bool",
          "name": "",
          "type": "bool"
        }
      ],
      "stateMutability": "nonpayable",
      "type": "function"
    },
    {
      "inputs": [
        {
          "internalType": "address",
          "name": "",
          "type": "address"
        }
      ],
      "name": "is_organization",
      "outputs": [
        {
          "internalType": "bool",
          "name": "",
          "type": "bool"
        }
      ],
      "stateMutability": "view",
      "type": "function"
    },
    {
      "inputs": [],
      "name": "name",
      "outputs": [
        {
          "internalType": "string",
          "name": "",
          "type": "string"
        }
      ],
      "stateMutability": "view",
      "type": "function"
    },
    {
      "inputs": [
        {
          "internalType": "uint256",
          "name": "id",
          "type": "uint256"
        }
      ],
      "name": "orgStakeholders",
      "outputs": [
        {
          "internalType": "uint256[]",
          "name": "",
          "type": "uint256[]"
        }
      ],
      "stateMutability": "view",
      "type": "function"
    },
    {
      "inputs": [
        {
          "internalType": "uint256",
          "name": "",
          "type": "uint256"
        }
      ],
      "name": "organizations",
      "outputs": [
        {
          "internalType": "address",
          "name": "orgAddress",
          "type": "address"
        },
        {
          "internalType": "uint256",
          "name": "id",
          "type": "uint256"
        },
        {
          "internalType": "string",
          "name": "name",
          "type": "string"
        },
        {
          "internalType": "string",
          "name": "symbol",
          "type": "string"
        }
      ],
      "stateMutability": "view",
      "type": "function"
    },
    {
      "inputs": [
        {
          "internalType": "string",
          "name": "name",
          "type": "string"
        },
        {
          "internalType": "string",
          "name": "symbol",
          "type": "string"
        },
        {
          "internalType": "string",
          "name": "email",
          "type": "string"
        },
        {
          "internalType": "address",
          "name": "orgAddress",
          "type": "address"
        }
      ],
      "name": "registerOrganization",
      "outputs": [],
      "stateMutability": "payable",
      "type": "function"
    },
    {
      "inputs": [
        {
          "internalType": "string",
          "name": "email",
          "type": "string"
        }
      ],
      "name": "signin",
      "outputs": [
        {
          "internalType": "string",
          "name": "accountType",
          "type": "string"
        },
        {
          "internalType": "address",
          "name": "_address",
          "type": "address"
        }
      ],
      "stateMutability": "view",
      "type": "function"
    },
    {
      "inputs": [
        {
          "internalType": "uint256",
          "name": "",
          "type": "uint256"
        }
      ],
      "name": "stakeholders",
      "outputs": [
        {
          "internalType": "uint256",
          "name": "id",
          "type": "uint256"
        },
        {
          "internalType": "uint256",
          "name": "orgId",
          "type": "uint256"
        },
        {
          "internalType": "address",
          "name": "userAddress",
          "type": "address"
        },
        {
          "internalType": "string",
          "name": "role",
          "type": "string"
        },
        {
          "internalType": "uint256",
          "name": "endTime",
          "type": "uint256"
        },
        {
          "internalType": "uint256",
          "name": "startTime",
          "type": "uint256"
        },
        {
          "internalType": "uint256",
          "name": "vestingPeriod",
          "type": "uint256"
        },
        {
          "internalType": "uint256",
          "name": "tokenAmount",
          "type": "uint256"
        },
        {
          "internalType": "uint256",
          "name": "claimedToken",
          "type": "uint256"
        },
        {
          "internalType": "bool",
          "name": "whitelisted",
          "type": "bool"
        }
      ],
      "stateMutability": "view",
      "type": "function"
    },
    {
      "inputs": [],
      "name": "symbol",
      "outputs": [
        {
          "internalType": "string",
          "name": "",
          "type": "string"
        }
      ],
      "stateMutability": "view",
      "type": "function"
    },
    {
      "inputs": [],
      "name": "totalSupply",
      "outputs": [
        {
          "internalType": "uint256",
          "name": "",
          "type": "uint256"
        }
      ],
      "stateMutability": "view",
      "type": "function"
    },
    {
      "inputs": [
        {
          "internalType": "address",
          "name": "to",
          "type": "address"
        },
        {
          "internalType": "uint256",
          "name": "amount",
          "type": "uint256"
        }
      ],
      "name": "transfer",
      "outputs": [
        {
          "internalType": "bool",
          "name": "",
          "type": "bool"
        }
      ],
      "stateMutability": "nonpayable",
      "type": "function"
    },
    {
      "inputs": [
        {
          "internalType": "address",
          "name": "from",
          "type": "address"
        },
        {
          "internalType": "address",
          "name": "to",
          "type": "address"
        },
        {
          "internalType": "uint256",
          "name": "amount",
          "type": "uint256"
        }
      ],
      "name": "transferFrom",
      "outputs": [
        {
          "internalType": "bool",
          "name": "",
          "type": "bool"
        }
      ],
      "stateMutability": "nonpayable",
      "type": "function"
    },
    {
      "inputs": [
        {
          "internalType": "uint256",
          "name": "stakeholderId",
          "type": "uint256"
        }
      ],
      "name": "whitelistStakeholder",
      "outputs": [],
      "stateMutability": "payable",
      "type": "function"
    }
  ],
  "bytecode": "0x6080604052655af3107a4000600a553480156200001b57600080fd5b506040516200239f3803806200239f8339810160408190526200003e9162000202565b815182908290620000579060039060208501906200008f565b5080516200006d9060049060208401906200008f565b505060016005555050600980546001600160a01b0319163317905550620002a9565b8280546200009d906200026c565b90600052602060002090601f016020900481019282620000c157600085556200010c565b82601f10620000dc57805160ff19168380011785556200010c565b828001600101855582156200010c579182015b828111156200010c578251825591602001919060010190620000ef565b506200011a9291506200011e565b5090565b5b808211156200011a57600081556001016200011f565b634e487b7160e01b600052604160045260246000fd5b600082601f8301126200015d57600080fd5b81516001600160401b03808211156200017a576200017a62000135565b604051601f8301601f19908116603f01168101908282118183101715620001a557620001a562000135565b81604052838152602092508683858801011115620001c257600080fd5b600091505b83821015620001e65785820183015181830184015290820190620001c7565b83821115620001f85760008385830101525b9695505050505050565b600080604083850312156200021657600080fd5b82516001600160401b03808211156200022e57600080fd5b6200023c868387016200014b565b935060208501519150808211156200025357600080fd5b5062000262858286016200014b565b9150509250929050565b600181811c908216806200028157607f821691505b60208210811415620002a357634e487b7160e01b600052602260045260246000fd5b50919050565b6120e680620002b96000396000f3fe6080604052600436106101405760003560e01c80635774a4cb116100b65780639a4dc41e1161006f5780639a4dc41e146103b5578063a457c2d7146103e3578063a9059cbb14610403578063cbd9805014610423578063dd62ed3e14610450578063e792dd8a1461047057600080fd5b80635774a4cb1461030457806370a08231146103175780637a52f30e1461034d5780637d4dc2691461037a5780638ea6bde31461038d57806395d89b41146103a057600080fd5b806323b872dd1161010857806323b872dd1461020a5780632f7e8a781461022a578063313ce5671461025a57806332d2ad8a14610276578063395093511461028b5780634845a295146102ab57600080fd5b806301a1df741461014557806306fdde031461015a578063095ea7b31461018557806318160ddd146101b55780631d6b8b72146101d4575b600080fd5b610158610153366004611a7f565b6104a0565b005b34801561016657600080fd5b5061016f610658565b60405161017c9190611af0565b60405180910390f35b34801561019157600080fd5b506101a56101a0366004611b1f565b6106ea565b604051901515815260200161017c565b3480156101c157600080fd5b506002545b60405190815260200161017c565b3480156101e057600080fd5b506101f46101ef366004611a7f565b610702565b60405161017c9a99989796959493929190611b49565b34801561021657600080fd5b506101a5610225366004611bb4565b6107fe565b34801561023657600080fd5b506101a5610245366004611bf0565b60086020526000908152604090205460ff1681565b34801561026657600080fd5b506040516012815260200161017c565b34801561028257600080fd5b50600a546101c6565b34801561029757600080fd5b506101a56102a6366004611b1f565b610822565b3480156102b757600080fd5b506102ec6102c6366004611cae565b80516020818301810180516006825292820191909301209152546001600160a01b031681565b6040516001600160a01b03909116815260200161017c565b610158610312366004611ceb565b610844565b34801561032357600080fd5b506101c6610332366004611bf0565b6001600160a01b031660009081526020819052604090205490565b34801561035957600080fd5b506101c6610368366004611bf0565b60076020526000908152604090205481565b610158610388366004611dbd565b610c6f565b61015861039b366004611e5d565b610f00565b3480156103ac57600080fd5b5061016f61119d565b3480156103c157600080fd5b506103d56103d0366004611e7f565b6111ac565b60405161017c929190611ec1565b3480156103ef57600080fd5b506101a56103fe366004611b1f565b6112b7565b34801561040f57600080fd5b506101a561041e366004611b1f565b611332565b34801561042f57600080fd5b5061044361043e366004611a7f565b611340565b60405161017c9190611eeb565b34801561045c57600080fd5b506101c661046b366004611f2f565b6113bc565b34801561047c57600080fd5b5061049061048b366004611a7f565b6113e7565b60405161017c9493929190611f62565b6104a861153e565b600a5434146104d25760405162461bcd60e51b81526004016104c990611fa6565b60405180910390fd5b3360009081526008602052604090205460ff166105435760405162461bcd60e51b815260206004820152602960248201527f4f6e6c79206f7267616e697a6174696f6e2063616e20706572666f726d20746860448201526834b99030b1ba34b7b760b91b60648201526084016104c9565b33600090815260076020526040902054600c80548390811061056757610567611fee565b90600052602060002090600a020160010154146105da5760405162461bcd60e51b815260206004820152602b60248201527f6572726f723a2075736572206973206e6f74206f66207468652073616d65206f60448201526a3933b0b734bd30ba34b7b760a91b60648201526084016104c9565b6001600c82815481106105ef576105ef611fee565b600091825260208220600a918202016009908101805460ff191694151594909417909355915491546040516001600160a01b03909316926108fc82150292818181858888f1935050505015801561064a573d6000803e3d6000fd5b506106556001600555565b50565b60606003805461066790612004565b80601f016020809104026020016040519081016040528092919081815260200182805461069390612004565b80156106e05780601f106106b5576101008083540402835291602001916106e0565b820191906000526020600020905b8154815290600101906020018083116106c357829003601f168201915b5050505050905090565b6000336106f8818585611598565b5060019392505050565b600c818154811061071257600080fd5b60009182526020909120600a9091020180546001820154600283015460038401805493955091936001600160a01b039091169290919061075190612004565b80601f016020809104026020016040519081016040528092919081815260200182805461077d90612004565b80156107ca5780601f1061079f576101008083540402835291602001916107ca565b820191906000526020600020905b8154815290600101906020018083116107ad57829003601f168201915b5050506004840154600585015460068601546007870154600888015460099098015496979396929550909350919060ff168a565b60003361080c8582856116bc565b610817858585611736565b506001949350505050565b6000336106f881858561083583836113bc565b61083f9190612055565b611598565b61084c61153e565b600a54341461086d5760405162461bcd60e51b81526004016104c990611fa6565b3360009081526008602052604090205460ff166108bb5760405162461bcd60e51b815260206004820152600c60248201526b155b985d5d1a1bdc9a5e995960a21b60448201526064016104c9565b600b5481106109175760405162461bcd60e51b815260206004820152602260248201527f6572726f723a206f7267616e697a6174696f6e20646f6573206e6f74206578696044820152611cdd60f21b60648201526084016104c9565b60006001600160a01b0316600683604051610932919061206d565b908152604051908190036020019020546001600160a01b0316146109985760405162461bcd60e51b815260206004820152601e60248201527f6572726f723a206163636f756e7420616c72656164792065786973747321000060448201526064016104c9565b600c546109ac57600c805460010181556000525b6000604051806101400160405280600c805490508152602001838152602001886001600160a01b031681526020018781526020018681526020014281526020016109ff87426118da90919063ffffffff16565b81526020808201879052600060408084018290526060938401829052600c8054600181018255925284517fdf6966c971051c3d54ec59162606531493a51404a002842f56009d7e5cf4a8c7600a909302928301908155858401517fdf6966c971051c3d54ec59162606531493a51404a002842f56009d7e5cf4a8c8840155908501517fdf6966c971051c3d54ec59162606531493a51404a002842f56009d7e5cf4a8c9830180546001600160a01b0319166001600160a01b039092169190911790559284015180519495508594610aff937fdf6966c971051c3d54ec59162606531493a51404a002842f56009d7e5cf4a8ca9093019291909101906119ac565b506080820151816004015560a0820151816005015560c0820151816006015560e0820151816007015561010082015181600801556101208201518160090160006101000a81548160ff021916908315150217905550505086600684604051610b67919061206d565b908152604080516020928190038301902080546001600160a01b0319166001600160a01b039485161790558351928a1660009081526007909252902055600b805483908110610bb857610bb8611fee565b600091825260208083208451600593909302016004018054600181018255908452928190209092015560c082015160408051428152928301919091527f95af58709ae003a33c5614254739baeb7c6c40fc50fb2a263b2c410841b9e1d9910160405180910390a1600954600a546040516001600160a01b039092169181156108fc0291906000818181858888f19350505050158015610c5b573d6000803e3d6000fd5b5050610c676001600555565b505050505050565b610c7761153e565b600a543414610c985760405162461bcd60e51b81526004016104c990611fa6565b60006001600160a01b031660068484604051610cb5929190612089565b908152604051908190036020019020546001600160a01b031614610d1b5760405162461bcd60e51b815260206004820152601e60248201527f6572726f723a206163636f756e7420616c72656164792065786973747321000060448201526064016104c9565b600b54610d2f57600b805460010181556000525b6040805160a0810182526001600160a01b038381168252600b805460208085018281528587018c8152606087018c90528751600080825281850190995260808801526001840185559390965284517f0175b7a638427703f0dbe7bb9bbf987a2551717b34e79f33b5b1008d1fa01db9600590930292830180546001600160a01b0319169190951617845594517f0175b7a638427703f0dbe7bb9bbf987a2551717b34e79f33b5b1008d1fa01dba8201559051805193948594610e17937f0175b7a638427703f0dbe7bb9bbf987a2551717b34e79f33b5b1008d1fa01dbb0192909101906119ac565b5060608201518051610e339160038401916020909101906119ac565b5060808201518051610e4f916004840191602090910190611a30565b5050508160068585604051610e65929190612089565b908152604080516020928190038301812080546001600160a01b0319166001600160a01b0395861617905584830151868516600090815260078552838120919091553381526008909352908220805460ff19166001179055600954600a549316926108fc81150292909190818181858888f19350505050158015610eed573d6000803e3d6000fd5b5050610ef96001600555565b5050505050565b610f0861153e565b600a543414610f295760405162461bcd60e51b81526004016104c990611fa6565b6001600c8281548110610f3e57610f3e611fee565b60009182526020909120600a90910201600901805460ff1916821515179055610fa95760405162461bcd60e51b815260206004820152601760248201527f596f7520617265206e6f742077686974656c697374656400000000000000000060448201526064016104c9565b600c8181548110610fbc57610fbc611fee565b90600052602060002090600a02016006015442101561101d5760405162461bcd60e51b815260206004820152601760248201527f56657374696e6720706572696f64206e6f74206f76657200000000000000000060448201526064016104c9565b81600c828154811061103157611031611fee565b90600052602060002090600a02016007015410156110a55760405162461bcd60e51b815260206004820152602b60248201527f596f752063616e277420636c61696d206d6f726520746f6b656e73207468616e60448201526a081dd85cc81d995cdd195960aa1b60648201526084016104c9565b6110de600c82815481106110bb576110bb611fee565b600091825260209091206002600a9092020101546001600160a01b0316836118ed565b81600c82815481106110f2576110f2611fee565b90600052602060002090600a020160070160008282546111129190612099565b9250508190555081600c828154811061112d5761112d611fee565b90600052602060002090600a0201600801600082825461114d9190612055565b9091555050600954600a546040516001600160a01b039092169181156108fc0291906000818181858888f1935050505015801561118e573d6000803e3d6000fd5b506111996001600555565b5050565b60606004805461066790612004565b60606000600684846040516111c2929190612089565b90815260405190819003602001902054336001600160a01b03909116146112475760405162461bcd60e51b815260206004820152603360248201527f4572726f723a20496e636f72726563742077616c6c65742061646472657373206044820152723ab9b2b2103337b91039b4b3b734b7339034b760691b60648201526084016104c9565b3360009081526008602052604090205460ff161561128a57505060408051808201909152600c81526b37b933b0b734bd30ba34b7b760a11b6020820152336112b0565b505060408051808201909152600b81526a39ba30b5b2b437b63232b960a91b6020820152335b9250929050565b600033816112c582866113bc565b9050838110156113255760405162461bcd60e51b815260206004820152602560248201527f45524332303a2064656372656173656420616c6c6f77616e63652062656c6f77604482015264207a65726f60d81b60648201526084016104c9565b6108178286868403611598565b6000336106f8818585611736565b6060600b828154811061135557611355611fee565b90600052602060002090600502016004018054806020026020016040519081016040528092919081815260200182805480156113b057602002820191906000526020600020905b81548152602001906001019080831161139c575b50505050509050919050565b6001600160a01b03918216600090815260016020908152604080832093909416825291909152205490565b600b81815481106113f757600080fd5b60009182526020909120600590910201805460018201546002830180546001600160a01b03909316945090929161142d90612004565b80601f016020809104026020016040519081016040528092919081815260200182805461145990612004565b80156114a65780601f1061147b576101008083540402835291602001916114a6565b820191906000526020600020905b81548152906001019060200180831161148957829003601f168201915b5050505050908060030180546114bb90612004565b80601f01602080910402602001604051908101604052809291908181526020018280546114e790612004565b80156115345780601f1061150957610100808354040283529160200191611534565b820191906000526020600020905b81548152906001019060200180831161151757829003601f168201915b5050505050905084565b600260055414156115915760405162461bcd60e51b815260206004820152601f60248201527f5265656e7472616e637947756172643a207265656e7472616e742063616c6c0060448201526064016104c9565b6002600555565b6001600160a01b0383166115fa5760405162461bcd60e51b8152602060048201526024808201527f45524332303a20617070726f76652066726f6d20746865207a65726f206164646044820152637265737360e01b60648201526084016104c9565b6001600160a01b03821661165b5760405162461bcd60e51b815260206004820152602260248201527f45524332303a20617070726f766520746f20746865207a65726f206164647265604482015261737360f01b60648201526084016104c9565b6001600160a01b0383811660008181526001602090815260408083209487168084529482529182902085905590518481527f8c5be1e5ebec7d5bd14f71427d1e84f3dd0314c0f7b2291e5b200ac8c7c3b925910160405180910390a3505050565b60006116c884846113bc565b9050600019811461173057818110156117235760405162461bcd60e51b815260206004820152601d60248201527f45524332303a20696e73756666696369656e7420616c6c6f77616e636500000060448201526064016104c9565b6117308484848403611598565b50505050565b6001600160a01b03831661179a5760405162461bcd60e51b815260206004820152602560248201527f45524332303a207472616e736665722066726f6d20746865207a65726f206164604482015264647265737360d81b60648201526084016104c9565b6001600160a01b0382166117fc5760405162461bcd60e51b815260206004820152602360248201527f45524332303a207472616e7366657220746f20746865207a65726f206164647260448201526265737360e81b60648201526084016104c9565b6001600160a01b038316600090815260208190526040902054818110156118745760405162461bcd60e51b815260206004820152602660248201527f45524332303a207472616e7366657220616d6f756e7420657863656564732062604482015265616c616e636560d01b60648201526084016104c9565b6001600160a01b03848116600081815260208181526040808320878703905593871680835291849020805487019055925185815290927fddf252ad1be2c89b69c2b068fc378daa952ba7f163c4a11628f55a4df523b3ef910160405180910390a3611730565b60006118e68284612055565b9392505050565b6001600160a01b0382166119435760405162461bcd60e51b815260206004820152601f60248201527f45524332303a206d696e7420746f20746865207a65726f20616464726573730060448201526064016104c9565b80600260008282546119559190612055565b90915550506001600160a01b038216600081815260208181526040808320805486019055518481527fddf252ad1be2c89b69c2b068fc378daa952ba7f163c4a11628f55a4df523b3ef910160405180910390a35050565b8280546119b890612004565b90600052602060002090601f0160209004810192826119da5760008555611a20565b82601f106119f357805160ff1916838001178555611a20565b82800160010185558215611a20579182015b82811115611a20578251825591602001919060010190611a05565b50611a2c929150611a6a565b5090565b828054828255906000526020600020908101928215611a205791602002820182811115611a20578251825591602001919060010190611a05565b5b80821115611a2c5760008155600101611a6b565b600060208284031215611a9157600080fd5b5035919050565b60005b83811015611ab3578181015183820152602001611a9b565b838111156117305750506000910152565b60008151808452611adc816020860160208601611a98565b601f01601f19169290920160200192915050565b6020815260006118e66020830184611ac4565b80356001600160a01b0381168114611b1a57600080fd5b919050565b60008060408385031215611b3257600080fd5b611b3b83611b03565b946020939093013593505050565b8a8152602081018a90526001600160a01b038916604082015261014060608201819052600090611b7b8382018b611ac4565b6080840199909952505060a081019590955260c085019390935260e0840191909152610100830152151561012090910152949350505050565b600080600060608486031215611bc957600080fd5b611bd284611b03565b9250611be060208501611b03565b9150604084013590509250925092565b600060208284031215611c0257600080fd5b6118e682611b03565b634e487b7160e01b600052604160045260246000fd5b600082601f830112611c3257600080fd5b813567ffffffffffffffff80821115611c4d57611c4d611c0b565b604051601f8301601f19908116603f01168101908282118183101715611c7557611c75611c0b565b81604052838152866020858801011115611c8e57600080fd5b836020870160208301376000602085830101528094505050505092915050565b600060208284031215611cc057600080fd5b813567ffffffffffffffff811115611cd757600080fd5b611ce384828501611c21565b949350505050565b60008060008060008060c08789031215611d0457600080fd5b611d0d87611b03565b9550602087013567ffffffffffffffff80821115611d2a57600080fd5b611d368a838b01611c21565b965060408901359550606089013594506080890135915080821115611d5a57600080fd5b50611d6789828a01611c21565b92505060a087013590509295509295509295565b60008083601f840112611d8d57600080fd5b50813567ffffffffffffffff811115611da557600080fd5b6020830191508360208285010111156112b057600080fd5b600080600080600060808688031215611dd557600080fd5b853567ffffffffffffffff80821115611ded57600080fd5b611df989838a01611c21565b96506020880135915080821115611e0f57600080fd5b611e1b89838a01611c21565b95506040880135915080821115611e3157600080fd5b50611e3e88828901611d7b565b9094509250611e51905060608701611b03565b90509295509295909350565b60008060408385031215611e7057600080fd5b50508035926020909101359150565b60008060208385031215611e9257600080fd5b823567ffffffffffffffff811115611ea957600080fd5b611eb585828601611d7b565b90969095509350505050565b604081526000611ed46040830185611ac4565b905060018060a01b03831660208301529392505050565b6020808252825182820181905260009190848201906040850190845b81811015611f2357835183529284019291840191600101611f07565b50909695505050505050565b60008060408385031215611f4257600080fd5b611f4b83611b03565b9150611f5960208401611b03565b90509250929050565b60018060a01b0385168152836020820152608060408201526000611f896080830185611ac4565b8281036060840152611f9b8185611ac4565b979650505050505050565b60208082526028908201527f5072696365206d75737420626520657175616c20746f207472616e73616374696040820152676f6e20707269636560c01b606082015260800190565b634e487b7160e01b600052603260045260246000fd5b600181811c9082168061201857607f821691505b6020821081141561203957634e487b7160e01b600052602260045260246000fd5b50919050565b634e487b7160e01b600052601160045260246000fd5b600082198211156120685761206861203f565b500190565b6000825161207f818460208701611a98565b9190910192915050565b8183823760009101908152919050565b6000828210156120ab576120ab61203f565b50039056fea26469706673582212208ba64dadb8f252d03d9cd9d8aa175e384683903ce8bd816a32612373b6b564b964736f6c63430008090033",
  "linkReferences": {},
  "deployedLinkReferences": {}
}